{
	"data": {
		"bytecode": {
			"linkReferences": {},
			"object": "60806040526006805460ff60801b1916905534801561001c575f80fd5b5060405161166438038061166483398101604081905261003b9161010d565b60408051808201909152600781526611905397d3919560ca1b602082015283905f6100668382610261565b5060016100738282610261565b505060068054600160401b600160801b0319166801000000000000000063ffffffff95861690810263ffffffff60601b1916919091176c01000000000000000000000000919091021763ffffffff60881b1916600160881b93909416929092029290921790555061031b9050565b634e487b7160e01b5f52604160045260245ffd5b805163ffffffff81168114610108575f80fd5b919050565b5f805f6060848603121561011f575f80fd5b83516001600160401b03811115610134575f80fd5b8401601f81018613610144575f80fd5b80516001600160401b0381111561015d5761015d6100e1565b604051601f8201601f19908116603f011681016001600160401b038111828210171561018b5761018b6100e1565b6040528181528282016020018810156101a2575f80fd5b8160208401602083015e5f602083830101528095505050506101c6602085016100f5565b91506101d4604085016100f5565b90509250925092565b600181811c908216806101f157607f821691505b60208210810361020f57634e487b7160e01b5f52602260045260245ffd5b50919050565b601f82111561025c57805f5260205f20601f840160051c8101602085101561023a5750805b601f840160051c820191505b81811015610259575f8155600101610246565b50505b505050565b81516001600160401b0381111561027a5761027a6100e1565b61028e8161028884546101dd565b84610215565b6020601f8211600181146102c0575f83156102a95750848201515b5f19600385901b1c1916600184901b178455610259565b5f84815260208120601f198516915b828110156102ef57878501518255602094850194600190920191016102cf565b508482101561030c57868401515f19600387901b60f8161c191681555b50505050600190811b01905550565b61133c806103285f395ff3fe608060405234801561000f575f80fd5b506004361061011c575f3560e01c806342842e0e116100a9578063a22cb4651161006e578063a22cb46514610272578063b88d4fde14610285578063c87b56dd14610298578063e985e9c5146102ab578063fedb3dca146102e6575f80fd5b806342842e0e146102075780636352211e1461021a57806370a082311461022d5780638a333b501461024e57806395d89b411461026a575f80fd5b8063095ea7b3116100ef578063095ea7b31461019d5780632004ffd9146101b057806323b872dd146101b857806324f92a25146101cb5780633940e9ee146101f7575f80fd5b806301173a741461012057806301ffc9a71461013557806306fdde031461015d578063081812fc14610172575b5f80fd5b61013361012e366004610f9c565b61030b565b005b610148610143366004610fcd565b610597565b60405190151581526020015b60405180910390f35b6101656105e8565b6040516101549190611016565b610185610180366004611028565b610677565b6040516001600160a01b039091168152602001610154565b6101336101ab36600461103f565b61069e565b6101336106ad565b6101336101c6366004611067565b6106b8565b6006546101e290600160601b900463ffffffff1681565b60405163ffffffff9091168152602001610154565b6006546101e29063ffffffff1681565b610133610215366004611067565b610741565b610185610228366004611028565b610760565b61024061023b366004610f9c565b61076a565b604051908152602001610154565b6006546101e29068010000000000000000900463ffffffff1681565b6101656107af565b6101336102803660046110a1565b6107be565b6101336102933660046110ee565b6107c9565b6101656102a6366004611028565b6107e1565b6101486102b93660046111cb565b6001600160a01b039182165f90815260056020908152604080832093909416825291909152205460ff1690565b6006546101e29071010000000000000000000000000000000000900463ffffffff1681565b6006548190600160801b900460ff16156103925760405162461bcd60e51b815260206004820152603960248201527f736f72727920736f6d656f6e6520656c7365206973206d696e74696e67206e6f60448201527f772c20706c656173652074727920616761696e206c617465720000000000000060648201526084015b60405180910390fd5b6006805460ff60801b1916600160801b179081905563ffffffff600160601b909104166104015760405162461bcd60e51b815260206004820152601760248201527f736f727279206e6f7420656e6f75676820737570706c790000000000000000006044820152606401610389565b5f8061040c8361076a565b11610417575f61041a565b60015b9050801561046a5760405162461bcd60e51b815260206004820152601760248201527f796f75206861766520616c7265616479206d696e7465640000000000000000006044820152606401610389565b600654610486908490640100000000900463ffffffff16610852565b6001600660048282829054906101000a900463ffffffff166104a89190611210565b92506101000a81548163ffffffff021916908363ffffffff16021790555060016006600c8282829054906101000a900463ffffffff166104e8919061122c565b92506101000a81548163ffffffff021916908363ffffffff160217905550600160065f8282829054906101000a900463ffffffff166105279190611210565b82546101009290920a63ffffffff818102199093169183160217909155600654604051600160601b90910490911681527fff4078d3a7633c1bd56ae05b46cf944f917a32264ef635cbc026a7efe2e47368915060200160405180910390a150506006805460ff60801b1916905550565b5f6001600160e01b031982166380ac58cd60e01b14806105c757506001600160e01b03198216635b5e139f60e01b145b806105e257506301ffc9a760e01b6001600160e01b03198316145b92915050565b60605f80546105f690611248565b80601f016020809104026020016040519081016040528092919081815260200182805461062290611248565b801561066d5780601f106106445761010080835404028352916020019161066d565b820191905f5260205f20905b81548152906001019060200180831161065057829003601f168201915b5050505050905090565b5f6106818261086b565b505f828152600460205260409020546001600160a01b03166105e2565b6106a98282336108a3565b5050565b6106b63361030b565b565b6001600160a01b0382166106e157604051633250574960e11b81525f6004820152602401610389565b5f6106ed8383336108b0565b9050836001600160a01b0316816001600160a01b03161461073b576040516364283d7b60e01b81526001600160a01b0380861660048301526024820184905282166044820152606401610389565b50505050565b61075b83838360405180602001604052805f8152506107c9565b505050565b5f6105e28261086b565b5f6001600160a01b038216610794576040516322718ad960e21b81525f6004820152602401610389565b506001600160a01b03165f9081526003602052604090205490565b6060600180546105f690611248565b6106a93383836109af565b6107d48484846106b8565b61073b3385858585610a4d565b60606107ec8261086b565b505f61080260408051602081019091525f815290565b90505f8151116108205760405180602001604052805f81525061084b565b8061082a84610b75565b60405160200161083b929190611297565b6040516020818303038152906040525b9392505050565b6106a9828260405180602001604052805f815250610c12565b5f818152600260205260408120546001600160a01b0316806105e257604051637e27328960e01b815260048101849052602401610389565b61075b8383836001610c29565b5f828152600260205260408120546001600160a01b03908116908316156108dc576108dc818486610d58565b6001600160a01b03811615610916576108f75f855f80610c29565b6001600160a01b0381165f90815260036020526040902080545f190190555b6001600160a01b03851615610944576001600160a01b0385165f908152600360205260409020805460010190555b5f84815260026020526040808220805473ffffffffffffffffffffffffffffffffffffffff19166001600160a01b0389811691821790925591518793918516917fddf252ad1be2c89b69c2b068fc378daa952ba7f163c4a11628f55a4df523b3ef91a4949350505050565b6001600160a01b0382166109e157604051630b61174360e31b81526001600160a01b0383166004820152602401610389565b6001600160a01b038381165f81815260056020908152604080832094871680845294825291829020805460ff191686151590811790915591519182527f17307eab39ab6107e8899845ad3d59bd9653f200f220920489ca2b5937696c31910160405180910390a3505050565b6001600160a01b0383163b15610b6e57604051630a85bd0160e11b81526001600160a01b0384169063150b7a0290610a8f9088908890879087906004016112ab565b6020604051808303815f875af1925050508015610ac9575060408051601f3d908101601f19168201909252610ac6918101906112eb565b60015b610b30573d808015610af6576040519150601f19603f3d011682016040523d82523d5f602084013e610afb565b606091505b5080515f03610b2857604051633250574960e11b81526001600160a01b0385166004820152602401610389565b805181602001fd5b6001600160e01b03198116630a85bd0160e11b14610b6c57604051633250574960e11b81526001600160a01b0385166004820152602401610389565b505b5050505050565b60605f610b8183610dbc565b60010190505f8167ffffffffffffffff811115610ba057610ba06110da565b6040519080825280601f01601f191660200182016040528015610bca576020820181803683370190505b5090508181016020015b5f19017f3031323334353637383961626364656600000000000000000000000000000000600a86061a8153600a8504945084610bd457509392505050565b610c1c8383610e9d565b61075b335f858585610a4d565b8080610c3d57506001600160a01b03821615155b15610d1c575f610c4c8461086b565b90506001600160a01b03831615801590610c785750826001600160a01b0316816001600160a01b031614155b8015610ca957506001600160a01b038082165f9081526005602090815260408083209387168352929052205460ff16155b15610cd25760405163a9fbf51f60e01b81526001600160a01b0384166004820152602401610389565b8115610d1a5783856001600160a01b0316826001600160a01b03167f8c5be1e5ebec7d5bd14f71427d1e84f3dd0314c0f7b2291e5b200ac8c7c3b92560405160405180910390a45b505b50505f908152600460205260409020805473ffffffffffffffffffffffffffffffffffffffff19166001600160a01b0392909216919091179055565b610d63838383610efe565b61075b576001600160a01b038316610d9157604051637e27328960e01b815260048101829052602401610389565b60405163177e802f60e01b81526001600160a01b038316600482015260248101829052604401610389565b5f807a184f03e93ff9f4daa797ed6e38ed64bf6a1f0100000000000000008310610e04577a184f03e93ff9f4daa797ed6e38ed64bf6a1f010000000000000000830492506040015b6d04ee2d6d415b85acef81000000008310610e30576d04ee2d6d415b85acef8100000000830492506020015b662386f26fc100008310610e4e57662386f26fc10000830492506010015b6305f5e1008310610e66576305f5e100830492506008015b6127108310610e7a57612710830492506004015b60648310610e8c576064830492506002015b600a83106105e25760010192915050565b6001600160a01b038216610ec657604051633250574960e11b81525f6004820152602401610389565b5f610ed283835f6108b0565b90506001600160a01b0381161561075b576040516339e3563760e11b81525f6004820152602401610389565b5f6001600160a01b03831615801590610f795750826001600160a01b0316846001600160a01b03161480610f5657506001600160a01b038085165f9081526005602090815260408083209387168352929052205460ff165b80610f7957505f828152600460205260409020546001600160a01b038481169116145b949350505050565b80356001600160a01b0381168114610f97575f80fd5b919050565b5f60208284031215610fac575f80fd5b61084b82610f81565b6001600160e01b031981168114610fca575f80fd5b50565b5f60208284031215610fdd575f80fd5b813561084b81610fb5565b5f81518084528060208401602086015e5f602082860101526020601f19601f83011685010191505092915050565b602081525f61084b6020830184610fe8565b5f60208284031215611038575f80fd5b5035919050565b5f8060408385031215611050575f80fd5b61105983610f81565b946020939093013593505050565b5f805f60608486031215611079575f80fd5b61108284610f81565b925061109060208501610f81565b929592945050506040919091013590565b5f80604083850312156110b2575f80fd5b6110bb83610f81565b9150602083013580151581146110cf575f80fd5b809150509250929050565b634e487b7160e01b5f52604160045260245ffd5b5f805f8060808587031215611101575f80fd5b61110a85610f81565b935061111860208601610f81565b925060408501359150606085013567ffffffffffffffff81111561113a575f80fd5b8501601f8101871361114a575f80fd5b803567ffffffffffffffff811115611164576111646110da565b604051601f8201601f19908116603f0116810167ffffffffffffffff81118282101715611193576111936110da565b6040528181528282016020018910156111aa575f80fd5b816020840160208301375f6020838301015280935050505092959194509250565b5f80604083850312156111dc575f80fd5b6111e583610f81565b91506111f360208401610f81565b90509250929050565b634e487b7160e01b5f52601160045260245ffd5b63ffffffff81811683821601908111156105e2576105e26111fc565b63ffffffff82811682821603908111156105e2576105e26111fc565b600181811c9082168061125c57607f821691505b60208210810361127a57634e487b7160e01b5f52602260045260245ffd5b50919050565b5f81518060208401855e5f93019283525090919050565b5f610f796112a58386611280565b84611280565b6001600160a01b03851681526001600160a01b0384166020820152826040820152608060608201525f6112e16080830184610fe8565b9695505050505050565b5f602082840312156112fb575f80fd5b815161084b81610fb556fea26469706673582212209beef695aef5720b76782ac532c9232d4231240464fea1227509f4205b24b77364736f6c634300081a0033",
			"opcodes": "PUSH1 0x80 PUSH1 0x40 MSTORE PUSH1 0x6 DUP1 SLOAD PUSH1 0xFF PUSH1 0x80 SHL NOT AND SWAP1 SSTORE CALLVALUE DUP1 ISZERO PUSH2 0x1C JUMPI PUSH0 DUP1 REVERT JUMPDEST POP PUSH1 0x40 MLOAD PUSH2 0x1664 CODESIZE SUB DUP1 PUSH2 0x1664 DUP4 CODECOPY DUP2 ADD PUSH1 0x40 DUP2 SWAP1 MSTORE PUSH2 0x3B SWAP2 PUSH2 0x10D JUMP JUMPDEST PUSH1 0x40 DUP1 MLOAD DUP1 DUP3 ADD SWAP1 SWAP2 MSTORE PUSH1 0x7 DUP2 MSTORE PUSH7 0x11905397D39195 PUSH1 0xCA SHL PUSH1 0x20 DUP3 ADD MSTORE DUP4 SWAP1 PUSH0 PUSH2 0x66 DUP4 DUP3 PUSH2 0x261 JUMP JUMPDEST POP PUSH1 0x1 PUSH2 0x73 DUP3 DUP3 PUSH2 0x261 JUMP JUMPDEST POP POP PUSH1 0x6 DUP1 SLOAD PUSH1 0x1 PUSH1 0x40 SHL PUSH1 0x1 PUSH1 0x80 SHL SUB NOT AND PUSH9 0x10000000000000000 PUSH4 0xFFFFFFFF SWAP6 DUP7 AND SWAP1 DUP2 MUL PUSH4 0xFFFFFFFF PUSH1 0x60 SHL NOT AND SWAP2 SWAP1 SWAP2 OR PUSH13 0x1000000000000000000000000 SWAP2 SWAP1 SWAP2 MUL OR PUSH4 0xFFFFFFFF PUSH1 0x88 SHL NOT AND PUSH1 0x1 PUSH1 0x88 SHL SWAP4 SWAP1 SWAP5 AND SWAP3 SWAP1 SWAP3 MUL SWAP3 SWAP1 SWAP3 OR SWAP1 SSTORE POP PUSH2 0x31B SWAP1 POP JUMP JUMPDEST PUSH4 0x4E487B71 PUSH1 0xE0 SHL PUSH0 MSTORE PUSH1 0x41 PUSH1 0x4 MSTORE PUSH1 0x24 PUSH0 REVERT JUMPDEST DUP1 MLOAD PUSH4 0xFFFFFFFF DUP2 AND DUP2 EQ PUSH2 0x108 JUMPI PUSH0 DUP1 REVERT JUMPDEST SWAP2 SWAP1 POP JUMP JUMPDEST PUSH0 DUP1 PUSH0 PUSH1 0x60 DUP5 DUP7 SUB SLT ISZERO PUSH2 0x11F JUMPI PUSH0 DUP1 REVERT JUMPDEST DUP4 MLOAD PUSH1 0x1 PUSH1 0x1 PUSH1 0x40 SHL SUB DUP2 GT ISZERO PUSH2 0x134 JUMPI PUSH0 DUP1 REVERT JUMPDEST DUP5 ADD PUSH1 0x1F DUP2 ADD DUP7 SGT PUSH2 0x144 JUMPI PUSH0 DUP1 REVERT JUMPDEST DUP1 MLOAD PUSH1 0x1 PUSH1 0x1 PUSH1 0x40 SHL SUB DUP2 GT ISZERO PUSH2 0x15D JUMPI PUSH2 0x15D PUSH2 0xE1 JUMP JUMPDEST PUSH1 0x40 MLOAD PUSH1 0x1F DUP3 ADD PUSH1 0x1F NOT SWAP1 DUP2 AND PUSH1 0x3F ADD AND DUP2 ADD PUSH1 0x1 PUSH1 0x1 PUSH1 0x40 SHL SUB DUP2 GT DUP3 DUP3 LT OR ISZERO PUSH2 0x18B JUMPI PUSH2 0x18B PUSH2 0xE1 JUMP JUMPDEST PUSH1 0x40 MSTORE DUP2 DUP2 MSTORE DUP3 DUP3 ADD PUSH1 0x20 ADD DUP9 LT ISZERO PUSH2 0x1A2 JUMPI PUSH0 DUP1 REVERT JUMPDEST DUP2 PUSH1 0x20 DUP5 ADD PUSH1 0x20 DUP4 ADD MCOPY PUSH0 PUSH1 0x20 DUP4 DUP4 ADD ADD MSTORE DUP1 SWAP6 POP POP POP POP PUSH2 0x1C6 PUSH1 0x20 DUP6 ADD PUSH2 0xF5 JUMP JUMPDEST SWAP2 POP PUSH2 0x1D4 PUSH1 0x40 DUP6 ADD PUSH2 0xF5 JUMP JUMPDEST SWAP1 POP SWAP3 POP SWAP3 POP SWAP3 JUMP JUMPDEST PUSH1 0x1 DUP2 DUP2 SHR SWAP1 DUP3 AND DUP1 PUSH2 0x1F1 JUMPI PUSH1 0x7F DUP3 AND SWAP2 POP JUMPDEST PUSH1 0x20 DUP3 LT DUP2 SUB PUSH2 0x20F JUMPI PUSH4 0x4E487B71 PUSH1 0xE0 SHL PUSH0 MSTORE PUSH1 0x22 PUSH1 0x4 MSTORE PUSH1 0x24 PUSH0 REVERT JUMPDEST POP SWAP2 SWAP1 POP JUMP JUMPDEST PUSH1 0x1F DUP3 GT ISZERO PUSH2 0x25C JUMPI DUP1 PUSH0 MSTORE PUSH1 0x20 PUSH0 KECCAK256 PUSH1 0x1F DUP5 ADD PUSH1 0x5 SHR DUP2 ADD PUSH1 0x20 DUP6 LT ISZERO PUSH2 0x23A JUMPI POP DUP1 JUMPDEST PUSH1 0x1F DUP5 ADD PUSH1 0x5 SHR DUP3 ADD SWAP2 POP JUMPDEST DUP2 DUP2 LT ISZERO PUSH2 0x259 JUMPI PUSH0 DUP2 SSTORE PUSH1 0x1 ADD PUSH2 0x246 JUMP JUMPDEST POP POP JUMPDEST POP POP POP JUMP JUMPDEST DUP2 MLOAD PUSH1 0x1 PUSH1 0x1 PUSH1 0x40 SHL SUB DUP2 GT ISZERO PUSH2 0x27A JUMPI PUSH2 0x27A PUSH2 0xE1 JUMP JUMPDEST PUSH2 0x28E DUP2 PUSH2 0x288 DUP5 SLOAD PUSH2 0x1DD JUMP JUMPDEST DUP5 PUSH2 0x215 JUMP JUMPDEST PUSH1 0x20 PUSH1 0x1F DUP3 GT PUSH1 0x1 DUP2 EQ PUSH2 0x2C0 JUMPI PUSH0 DUP4 ISZERO PUSH2 0x2A9 JUMPI POP DUP5 DUP3 ADD MLOAD JUMPDEST PUSH0 NOT PUSH1 0x3 DUP6 SWAP1 SHL SHR NOT AND PUSH1 0x1 DUP5 SWAP1 SHL OR DUP5 SSTORE PUSH2 0x259 JUMP JUMPDEST PUSH0 DUP5 DUP2 MSTORE PUSH1 0x20 DUP2 KECCAK256 PUSH1 0x1F NOT DUP6 AND SWAP2 JUMPDEST DUP3 DUP2 LT ISZERO PUSH2 0x2EF JUMPI DUP8 DUP6 ADD MLOAD DUP3 SSTORE PUSH1 0x20 SWAP5 DUP6 ADD SWAP5 PUSH1 0x1 SWAP1 SWAP3 ADD SWAP2 ADD PUSH2 0x2CF JUMP JUMPDEST POP DUP5 DUP3 LT ISZERO PUSH2 0x30C JUMPI DUP7 DUP5 ADD MLOAD PUSH0 NOT PUSH1 0x3 DUP8 SWAP1 SHL PUSH1 0xF8 AND SHR NOT AND DUP2 SSTORE JUMPDEST POP POP POP POP PUSH1 0x1 SWAP1 DUP2 SHL ADD SWAP1 SSTORE POP JUMP JUMPDEST PUSH2 0x133C DUP1 PUSH2 0x328 PUSH0 CODECOPY PUSH0 RETURN INVALID PUSH1 0x80 PUSH1 0x40 MSTORE CALLVALUE DUP1 ISZERO PUSH2 0xF JUMPI PUSH0 DUP1 REVERT JUMPDEST POP PUSH1 0x4 CALLDATASIZE LT PUSH2 0x11C JUMPI PUSH0 CALLDATALOAD PUSH1 0xE0 SHR DUP1 PUSH4 0x42842E0E GT PUSH2 0xA9 JUMPI DUP1 PUSH4 0xA22CB465 GT PUSH2 0x6E JUMPI DUP1 PUSH4 0xA22CB465 EQ PUSH2 0x272 JUMPI DUP1 PUSH4 0xB88D4FDE EQ PUSH2 0x285 JUMPI DUP1 PUSH4 0xC87B56DD EQ PUSH2 0x298 JUMPI DUP1 PUSH4 0xE985E9C5 EQ PUSH2 0x2AB JUMPI DUP1 PUSH4 0xFEDB3DCA EQ PUSH2 0x2E6 JUMPI PUSH0 DUP1 REVERT JUMPDEST DUP1 PUSH4 0x42842E0E EQ PUSH2 0x207 JUMPI DUP1 PUSH4 0x6352211E EQ PUSH2 0x21A JUMPI DUP1 PUSH4 0x70A08231 EQ PUSH2 0x22D JUMPI DUP1 PUSH4 0x8A333B50 EQ PUSH2 0x24E JUMPI DUP1 PUSH4 0x95D89B41 EQ PUSH2 0x26A JUMPI PUSH0 DUP1 REVERT JUMPDEST DUP1 PUSH4 0x95EA7B3 GT PUSH2 0xEF JUMPI DUP1 PUSH4 0x95EA7B3 EQ PUSH2 0x19D JUMPI DUP1 PUSH4 0x2004FFD9 EQ PUSH2 0x1B0 JUMPI DUP1 PUSH4 0x23B872DD EQ PUSH2 0x1B8 JUMPI DUP1 PUSH4 0x24F92A25 EQ PUSH2 0x1CB JUMPI DUP1 PUSH4 0x3940E9EE EQ PUSH2 0x1F7 JUMPI PUSH0 DUP1 REVERT JUMPDEST DUP1 PUSH4 0x1173A74 EQ PUSH2 0x120 JUMPI DUP1 PUSH4 0x1FFC9A7 EQ PUSH2 0x135 JUMPI DUP1 PUSH4 0x6FDDE03 EQ PUSH2 0x15D JUMPI DUP1 PUSH4 0x81812FC EQ PUSH2 0x172 JUMPI JUMPDEST PUSH0 DUP1 REVERT JUMPDEST PUSH2 0x133 PUSH2 0x12E CALLDATASIZE PUSH1 0x4 PUSH2 0xF9C JUMP JUMPDEST PUSH2 0x30B JUMP JUMPDEST STOP JUMPDEST PUSH2 0x148 PUSH2 0x143 CALLDATASIZE PUSH1 0x4 PUSH2 0xFCD JUMP JUMPDEST PUSH2 0x597 JUMP JUMPDEST PUSH1 0x40 MLOAD SWAP1 ISZERO ISZERO DUP2 MSTORE PUSH1 0x20 ADD JUMPDEST PUSH1 0x40 MLOAD DUP1 SWAP2 SUB SWAP1 RETURN JUMPDEST PUSH2 0x165 PUSH2 0x5E8 JUMP JUMPDEST PUSH1 0x40 MLOAD PUSH2 0x154 SWAP2 SWAP1 PUSH2 0x1016 JUMP JUMPDEST PUSH2 0x185 PUSH2 0x180 CALLDATASIZE PUSH1 0x4 PUSH2 0x1028 JUMP JUMPDEST PUSH2 0x677 JUMP JUMPDEST PUSH1 0x40 MLOAD PUSH1 0x1 PUSH1 0x1 PUSH1 0xA0 SHL SUB SWAP1 SWAP2 AND DUP2 MSTORE PUSH1 0x20 ADD PUSH2 0x154 JUMP JUMPDEST PUSH2 0x133 PUSH2 0x1AB CALLDATASIZE PUSH1 0x4 PUSH2 0x103F JUMP JUMPDEST PUSH2 0x69E JUMP JUMPDEST PUSH2 0x133 PUSH2 0x6AD JUMP JUMPDEST PUSH2 0x133 PUSH2 0x1C6 CALLDATASIZE PUSH1 0x4 PUSH2 0x1067 JUMP JUMPDEST PUSH2 0x6B8 JUMP JUMPDEST PUSH1 0x6 SLOAD PUSH2 0x1E2 SWAP1 PUSH1 0x1 PUSH1 0x60 SHL SWAP1 DIV PUSH4 0xFFFFFFFF AND DUP2 JUMP JUMPDEST PUSH1 0x40 MLOAD PUSH4 0xFFFFFFFF SWAP1 SWAP2 AND DUP2 MSTORE PUSH1 0x20 ADD PUSH2 0x154 JUMP JUMPDEST PUSH1 0x6 SLOAD PUSH2 0x1E2 SWAP1 PUSH4 0xFFFFFFFF AND DUP2 JUMP JUMPDEST PUSH2 0x133 PUSH2 0x215 CALLDATASIZE PUSH1 0x4 PUSH2 0x1067 JUMP JUMPDEST PUSH2 0x741 JUMP JUMPDEST PUSH2 0x185 PUSH2 0x228 CALLDATASIZE PUSH1 0x4 PUSH2 0x1028 JUMP JUMPDEST PUSH2 0x760 JUMP JUMPDEST PUSH2 0x240 PUSH2 0x23B CALLDATASIZE PUSH1 0x4 PUSH2 0xF9C JUMP JUMPDEST PUSH2 0x76A JUMP JUMPDEST PUSH1 0x40 MLOAD SWAP1 DUP2 MSTORE PUSH1 0x20 ADD PUSH2 0x154 JUMP JUMPDEST PUSH1 0x6 SLOAD PUSH2 0x1E2 SWAP1 PUSH9 0x10000000000000000 SWAP1 DIV PUSH4 0xFFFFFFFF AND DUP2 JUMP JUMPDEST PUSH2 0x165 PUSH2 0x7AF JUMP JUMPDEST PUSH2 0x133 PUSH2 0x280 CALLDATASIZE PUSH1 0x4 PUSH2 0x10A1 JUMP JUMPDEST PUSH2 0x7BE JUMP JUMPDEST PUSH2 0x133 PUSH2 0x293 CALLDATASIZE PUSH1 0x4 PUSH2 0x10EE JUMP JUMPDEST PUSH2 0x7C9 JUMP JUMPDEST PUSH2 0x165 PUSH2 0x2A6 CALLDATASIZE PUSH1 0x4 PUSH2 0x1028 JUMP JUMPDEST PUSH2 0x7E1 JUMP JUMPDEST PUSH2 0x148 PUSH2 0x2B9 CALLDATASIZE PUSH1 0x4 PUSH2 0x11CB JUMP JUMPDEST PUSH1 0x1 PUSH1 0x1 PUSH1 0xA0 SHL SUB SWAP2 DUP3 AND PUSH0 SWAP1 DUP2 MSTORE PUSH1 0x5 PUSH1 0x20 SWAP1 DUP2 MSTORE PUSH1 0x40 DUP1 DUP4 KECCAK256 SWAP4 SWAP1 SWAP5 AND DUP3 MSTORE SWAP2 SWAP1 SWAP2 MSTORE KECCAK256 SLOAD PUSH1 0xFF AND SWAP1 JUMP JUMPDEST PUSH1 0x6 SLOAD PUSH2 0x1E2 SWAP1 PUSH18 0x10000000000000000000000000000000000 SWAP1 DIV PUSH4 0xFFFFFFFF AND DUP2 JUMP JUMPDEST PUSH1 0x6 SLOAD DUP2 SWAP1 PUSH1 0x1 PUSH1 0x80 SHL SWAP1 DIV PUSH1 0xFF AND ISZERO PUSH2 0x392 JUMPI PUSH1 0x40 MLOAD PUSH3 0x461BCD PUSH1 0xE5 SHL DUP2 MSTORE PUSH1 0x20 PUSH1 0x4 DUP3 ADD MSTORE PUSH1 0x39 PUSH1 0x24 DUP3 ADD MSTORE PUSH32 0x736F72727920736F6D656F6E6520656C7365206973206D696E74696E67206E6F PUSH1 0x44 DUP3 ADD MSTORE PUSH32 0x772C20706C656173652074727920616761696E206C6174657200000000000000 PUSH1 0x64 DUP3 ADD MSTORE PUSH1 0x84 ADD JUMPDEST PUSH1 0x40 MLOAD DUP1 SWAP2 SUB SWAP1 REVERT JUMPDEST PUSH1 0x6 DUP1 SLOAD PUSH1 0xFF PUSH1 0x80 SHL NOT AND PUSH1 0x1 PUSH1 0x80 SHL OR SWAP1 DUP2 SWAP1 SSTORE PUSH4 0xFFFFFFFF PUSH1 0x1 PUSH1 0x60 SHL SWAP1 SWAP2 DIV AND PUSH2 0x401 JUMPI PUSH1 0x40 MLOAD PUSH3 0x461BCD PUSH1 0xE5 SHL DUP2 MSTORE PUSH1 0x20 PUSH1 0x4 DUP3 ADD MSTORE PUSH1 0x17 PUSH1 0x24 DUP3 ADD MSTORE PUSH32 0x736F727279206E6F7420656E6F75676820737570706C79000000000000000000 PUSH1 0x44 DUP3 ADD MSTORE PUSH1 0x64 ADD PUSH2 0x389 JUMP JUMPDEST PUSH0 DUP1 PUSH2 0x40C DUP4 PUSH2 0x76A JUMP JUMPDEST GT PUSH2 0x417 JUMPI PUSH0 PUSH2 0x41A JUMP JUMPDEST PUSH1 0x1 JUMPDEST SWAP1 POP DUP1 ISZERO PUSH2 0x46A JUMPI PUSH1 0x40 MLOAD PUSH3 0x461BCD PUSH1 0xE5 SHL DUP2 MSTORE PUSH1 0x20 PUSH1 0x4 DUP3 ADD MSTORE PUSH1 0x17 PUSH1 0x24 DUP3 ADD MSTORE PUSH32 0x796F75206861766520616C7265616479206D696E746564000000000000000000 PUSH1 0x44 DUP3 ADD MSTORE PUSH1 0x64 ADD PUSH2 0x389 JUMP JUMPDEST PUSH1 0x6 SLOAD PUSH2 0x486 SWAP1 DUP5 SWAP1 PUSH5 0x100000000 SWAP1 DIV PUSH4 0xFFFFFFFF AND PUSH2 0x852 JUMP JUMPDEST PUSH1 0x1 PUSH1 0x6 PUSH1 0x4 DUP3 DUP3 DUP3 SWAP1 SLOAD SWAP1 PUSH2 0x100 EXP SWAP1 DIV PUSH4 0xFFFFFFFF AND PUSH2 0x4A8 SWAP2 SWAP1 PUSH2 0x1210 JUMP JUMPDEST SWAP3 POP PUSH2 0x100 EXP DUP2 SLOAD DUP2 PUSH4 0xFFFFFFFF MUL NOT AND SWAP1 DUP4 PUSH4 0xFFFFFFFF AND MUL OR SWAP1 SSTORE POP PUSH1 0x1 PUSH1 0x6 PUSH1 0xC DUP3 DUP3 DUP3 SWAP1 SLOAD SWAP1 PUSH2 0x100 EXP SWAP1 DIV PUSH4 0xFFFFFFFF AND PUSH2 0x4E8 SWAP2 SWAP1 PUSH2 0x122C JUMP JUMPDEST SWAP3 POP PUSH2 0x100 EXP DUP2 SLOAD DUP2 PUSH4 0xFFFFFFFF MUL NOT AND SWAP1 DUP4 PUSH4 0xFFFFFFFF AND MUL OR SWAP1 SSTORE POP PUSH1 0x1 PUSH1 0x6 PUSH0 DUP3 DUP3 DUP3 SWAP1 SLOAD SWAP1 PUSH2 0x100 EXP SWAP1 DIV PUSH4 0xFFFFFFFF AND PUSH2 0x527 SWAP2 SWAP1 PUSH2 0x1210 JUMP JUMPDEST DUP3 SLOAD PUSH2 0x100 SWAP3 SWAP1 SWAP3 EXP PUSH4 0xFFFFFFFF DUP2 DUP2 MUL NOT SWAP1 SWAP4 AND SWAP2 DUP4 AND MUL OR SWAP1 SWAP2 SSTORE PUSH1 0x6 SLOAD PUSH1 0x40 MLOAD PUSH1 0x1 PUSH1 0x60 SHL SWAP1 SWAP2 DIV SWAP1 SWAP2 AND DUP2 MSTORE PUSH32 0xFF4078D3A7633C1BD56AE05B46CF944F917A32264EF635CBC026A7EFE2E47368 SWAP2 POP PUSH1 0x20 ADD PUSH1 0x40 MLOAD DUP1 SWAP2 SUB SWAP1 LOG1 POP POP PUSH1 0x6 DUP1 SLOAD PUSH1 0xFF PUSH1 0x80 SHL NOT AND SWAP1 SSTORE POP JUMP JUMPDEST PUSH0 PUSH1 0x1 PUSH1 0x1 PUSH1 0xE0 SHL SUB NOT DUP3 AND PUSH4 0x80AC58CD PUSH1 0xE0 SHL EQ DUP1 PUSH2 0x5C7 JUMPI POP PUSH1 0x1 PUSH1 0x1 PUSH1 0xE0 SHL SUB NOT DUP3 AND PUSH4 0x5B5E139F PUSH1 0xE0 SHL EQ JUMPDEST DUP1 PUSH2 0x5E2 JUMPI POP PUSH4 0x1FFC9A7 PUSH1 0xE0 SHL PUSH1 0x1 PUSH1 0x1 PUSH1 0xE0 SHL SUB NOT DUP4 AND EQ JUMPDEST SWAP3 SWAP2 POP POP JUMP JUMPDEST PUSH1 0x60 PUSH0 DUP1 SLOAD PUSH2 0x5F6 SWAP1 PUSH2 0x1248 JUMP JUMPDEST DUP1 PUSH1 0x1F ADD PUSH1 0x20 DUP1 SWAP2 DIV MUL PUSH1 0x20 ADD PUSH1 0x40 MLOAD SWAP1 DUP2 ADD PUSH1 0x40 MSTORE DUP1 SWAP3 SWAP2 SWAP1 DUP2 DUP2 MSTORE PUSH1 0x20 ADD DUP3 DUP1 SLOAD PUSH2 0x622 SWAP1 PUSH2 0x1248 JUMP JUMPDEST DUP1 ISZERO PUSH2 0x66D JUMPI DUP1 PUSH1 0x1F LT PUSH2 0x644 JUMPI PUSH2 0x100 DUP1 DUP4 SLOAD DIV MUL DUP4 MSTORE SWAP2 PUSH1 0x20 ADD SWAP2 PUSH2 0x66D JUMP JUMPDEST DUP3 ADD SWAP2 SWAP1 PUSH0 MSTORE PUSH1 0x20 PUSH0 KECCAK256 SWAP1 JUMPDEST DUP2 SLOAD DUP2 MSTORE SWAP1 PUSH1 0x1 ADD SWAP1 PUSH1 0x20 ADD DUP1 DUP4 GT PUSH2 0x650 JUMPI DUP3 SWAP1 SUB PUSH1 0x1F AND DUP3 ADD SWAP2 JUMPDEST POP POP POP POP POP SWAP1 POP SWAP1 JUMP JUMPDEST PUSH0 PUSH2 0x681 DUP3 PUSH2 0x86B JUMP JUMPDEST POP PUSH0 DUP3 DUP2 MSTORE PUSH1 0x4 PUSH1 0x20 MSTORE PUSH1 0x40 SWAP1 KECCAK256 SLOAD PUSH1 0x1 PUSH1 0x1 PUSH1 0xA0 SHL SUB AND PUSH2 0x5E2 JUMP JUMPDEST PUSH2 0x6A9 DUP3 DUP3 CALLER PUSH2 0x8A3 JUMP JUMPDEST POP POP JUMP JUMPDEST PUSH2 0x6B6 CALLER PUSH2 0x30B JUMP JUMPDEST JUMP JUMPDEST PUSH1 0x1 PUSH1 0x1 PUSH1 0xA0 SHL SUB DUP3 AND PUSH2 0x6E1 JUMPI PUSH1 0x40 MLOAD PUSH4 0x32505749 PUSH1 0xE1 SHL DUP2 MSTORE PUSH0 PUSH1 0x4 DUP3 ADD MSTORE PUSH1 0x24 ADD PUSH2 0x389 JUMP JUMPDEST PUSH0 PUSH2 0x6ED DUP4 DUP4 CALLER PUSH2 0x8B0 JUMP JUMPDEST SWAP1 POP DUP4 PUSH1 0x1 PUSH1 0x1 PUSH1 0xA0 SHL SUB AND DUP2 PUSH1 0x1 PUSH1 0x1 PUSH1 0xA0 SHL SUB AND EQ PUSH2 0x73B JUMPI PUSH1 0x40 MLOAD PUSH4 0x64283D7B PUSH1 0xE0 SHL DUP2 MSTORE PUSH1 0x1 PUSH1 0x1 PUSH1 0xA0 SHL SUB DUP1 DUP7 AND PUSH1 0x4 DUP4 ADD MSTORE PUSH1 0x24 DUP3 ADD DUP5 SWAP1 MSTORE DUP3 AND PUSH1 0x44 DUP3 ADD MSTORE PUSH1 0x64 ADD PUSH2 0x389 JUMP JUMPDEST POP POP POP POP JUMP JUMPDEST PUSH2 0x75B DUP4 DUP4 DUP4 PUSH1 0x40 MLOAD DUP1 PUSH1 0x20 ADD PUSH1 0x40 MSTORE DUP1 PUSH0 DUP2 MSTORE POP PUSH2 0x7C9 JUMP JUMPDEST POP POP POP JUMP JUMPDEST PUSH0 PUSH2 0x5E2 DUP3 PUSH2 0x86B JUMP JUMPDEST PUSH0 PUSH1 0x1 PUSH1 0x1 PUSH1 0xA0 SHL SUB DUP3 AND PUSH2 0x794 JUMPI PUSH1 0x40 MLOAD PUSH4 0x22718AD9 PUSH1 0xE2 SHL DUP2 MSTORE PUSH0 PUSH1 0x4 DUP3 ADD MSTORE PUSH1 0x24 ADD PUSH2 0x389 JUMP JUMPDEST POP PUSH1 0x1 PUSH1 0x1 PUSH1 0xA0 SHL SUB AND PUSH0 SWAP1 DUP2 MSTORE PUSH1 0x3 PUSH1 0x20 MSTORE PUSH1 0x40 SWAP1 KECCAK256 SLOAD SWAP1 JUMP JUMPDEST PUSH1 0x60 PUSH1 0x1 DUP1 SLOAD PUSH2 0x5F6 SWAP1 PUSH2 0x1248 JUMP JUMPDEST PUSH2 0x6A9 CALLER DUP4 DUP4 PUSH2 0x9AF JUMP JUMPDEST PUSH2 0x7D4 DUP5 DUP5 DUP5 PUSH2 0x6B8 JUMP JUMPDEST PUSH2 0x73B CALLER DUP6 DUP6 DUP6 DUP6 PUSH2 0xA4D JUMP JUMPDEST PUSH1 0x60 PUSH2 0x7EC DUP3 PUSH2 0x86B JUMP JUMPDEST POP PUSH0 PUSH2 0x802 PUSH1 0x40 DUP1 MLOAD PUSH1 0x20 DUP2 ADD SWAP1 SWAP2 MSTORE PUSH0 DUP2 MSTORE SWAP1 JUMP JUMPDEST SWAP1 POP PUSH0 DUP2 MLOAD GT PUSH2 0x820 JUMPI PUSH1 0x40 MLOAD DUP1 PUSH1 0x20 ADD PUSH1 0x40 MSTORE DUP1 PUSH0 DUP2 MSTORE POP PUSH2 0x84B JUMP JUMPDEST DUP1 PUSH2 0x82A DUP5 PUSH2 0xB75 JUMP JUMPDEST PUSH1 0x40 MLOAD PUSH1 0x20 ADD PUSH2 0x83B SWAP3 SWAP2 SWAP1 PUSH2 0x1297 JUMP JUMPDEST PUSH1 0x40 MLOAD PUSH1 0x20 DUP2 DUP4 SUB SUB DUP2 MSTORE SWAP1 PUSH1 0x40 MSTORE JUMPDEST SWAP4 SWAP3 POP POP POP JUMP JUMPDEST PUSH2 0x6A9 DUP3 DUP3 PUSH1 0x40 MLOAD DUP1 PUSH1 0x20 ADD PUSH1 0x40 MSTORE DUP1 PUSH0 DUP2 MSTORE POP PUSH2 0xC12 JUMP JUMPDEST PUSH0 DUP2 DUP2 MSTORE PUSH1 0x2 PUSH1 0x20 MSTORE PUSH1 0x40 DUP2 KECCAK256 SLOAD PUSH1 0x1 PUSH1 0x1 PUSH1 0xA0 SHL SUB AND DUP1 PUSH2 0x5E2 JUMPI PUSH1 0x40 MLOAD PUSH4 0x7E273289 PUSH1 0xE0 SHL DUP2 MSTORE PUSH1 0x4 DUP2 ADD DUP5 SWAP1 MSTORE PUSH1 0x24 ADD PUSH2 0x389 JUMP JUMPDEST PUSH2 0x75B DUP4 DUP4 DUP4 PUSH1 0x1 PUSH2 0xC29 JUMP JUMPDEST PUSH0 DUP3 DUP2 MSTORE PUSH1 0x2 PUSH1 0x20 MSTORE PUSH1 0x40 DUP2 KECCAK256 SLOAD PUSH1 0x1 PUSH1 0x1 PUSH1 0xA0 SHL SUB SWAP1 DUP2 AND SWAP1 DUP4 AND ISZERO PUSH2 0x8DC JUMPI PUSH2 0x8DC DUP2 DUP5 DUP7 PUSH2 0xD58 JUMP JUMPDEST PUSH1 0x1 PUSH1 0x1 PUSH1 0xA0 SHL SUB DUP2 AND ISZERO PUSH2 0x916 JUMPI PUSH2 0x8F7 PUSH0 DUP6 PUSH0 DUP1 PUSH2 0xC29 JUMP JUMPDEST PUSH1 0x1 PUSH1 0x1 PUSH1 0xA0 SHL SUB DUP2 AND PUSH0 SWAP1 DUP2 MSTORE PUSH1 0x3 PUSH1 0x20 MSTORE PUSH1 0x40 SWAP1 KECCAK256 DUP1 SLOAD PUSH0 NOT ADD SWAP1 SSTORE JUMPDEST PUSH1 0x1 PUSH1 0x1 PUSH1 0xA0 SHL SUB DUP6 AND ISZERO PUSH2 0x944 JUMPI PUSH1 0x1 PUSH1 0x1 PUSH1 0xA0 SHL SUB DUP6 AND PUSH0 SWAP1 DUP2 MSTORE PUSH1 0x3 PUSH1 0x20 MSTORE PUSH1 0x40 SWAP1 KECCAK256 DUP1 SLOAD PUSH1 0x1 ADD SWAP1 SSTORE JUMPDEST PUSH0 DUP5 DUP2 MSTORE PUSH1 0x2 PUSH1 0x20 MSTORE PUSH1 0x40 DUP1 DUP3 KECCAK256 DUP1 SLOAD PUSH20 0xFFFFFFFFFFFFFFFFFFFFFFFFFFFFFFFFFFFFFFFF NOT AND PUSH1 0x1 PUSH1 0x1 PUSH1 0xA0 SHL SUB DUP10 DUP2 AND SWAP2 DUP3 OR SWAP1 SWAP3 SSTORE SWAP2 MLOAD DUP8 SWAP4 SWAP2 DUP6 AND SWAP2 PUSH32 0xDDF252AD1BE2C89B69C2B068FC378DAA952BA7F163C4A11628F55A4DF523B3EF SWAP2 LOG4 SWAP5 SWAP4 POP POP POP POP JUMP JUMPDEST PUSH1 0x1 PUSH1 0x1 PUSH1 0xA0 SHL SUB DUP3 AND PUSH2 0x9E1 JUMPI PUSH1 0x40 MLOAD PUSH4 0xB611743 PUSH1 0xE3 SHL DUP2 MSTORE PUSH1 0x1 PUSH1 0x1 PUSH1 0xA0 SHL SUB DUP4 AND PUSH1 0x4 DUP3 ADD MSTORE PUSH1 0x24 ADD PUSH2 0x389 JUMP JUMPDEST PUSH1 0x1 PUSH1 0x1 PUSH1 0xA0 SHL SUB DUP4 DUP2 AND PUSH0 DUP2 DUP2 MSTORE PUSH1 0x5 PUSH1 0x20 SWAP1 DUP2 MSTORE PUSH1 0x40 DUP1 DUP4 KECCAK256 SWAP5 DUP8 AND DUP1 DUP5 MSTORE SWAP5 DUP3 MSTORE SWAP2 DUP3 SWAP1 KECCAK256 DUP1 SLOAD PUSH1 0xFF NOT AND DUP7 ISZERO ISZERO SWAP1 DUP2 OR SWAP1 SWAP2 SSTORE SWAP2 MLOAD SWAP2 DUP3 MSTORE PUSH32 0x17307EAB39AB6107E8899845AD3D59BD9653F200F220920489CA2B5937696C31 SWAP2 ADD PUSH1 0x40 MLOAD DUP1 SWAP2 SUB SWAP1 LOG3 POP POP POP JUMP JUMPDEST PUSH1 0x1 PUSH1 0x1 PUSH1 0xA0 SHL SUB DUP4 AND EXTCODESIZE ISZERO PUSH2 0xB6E JUMPI PUSH1 0x40 MLOAD PUSH4 0xA85BD01 PUSH1 0xE1 SHL DUP2 MSTORE PUSH1 0x1 PUSH1 0x1 PUSH1 0xA0 SHL SUB DUP5 AND SWAP1 PUSH4 0x150B7A02 SWAP1 PUSH2 0xA8F SWAP1 DUP9 SWAP1 DUP9 SWAP1 DUP8 SWAP1 DUP8 SWAP1 PUSH1 0x4 ADD PUSH2 0x12AB JUMP JUMPDEST PUSH1 0x20 PUSH1 0x40 MLOAD DUP1 DUP4 SUB DUP2 PUSH0 DUP8 GAS CALL SWAP3 POP POP POP DUP1 ISZERO PUSH2 0xAC9 JUMPI POP PUSH1 0x40 DUP1 MLOAD PUSH1 0x1F RETURNDATASIZE SWAP1 DUP2 ADD PUSH1 0x1F NOT AND DUP3 ADD SWAP1 SWAP3 MSTORE PUSH2 0xAC6 SWAP2 DUP2 ADD SWAP1 PUSH2 0x12EB JUMP JUMPDEST PUSH1 0x1 JUMPDEST PUSH2 0xB30 JUMPI RETURNDATASIZE DUP1 DUP1 ISZERO PUSH2 0xAF6 JUMPI PUSH1 0x40 MLOAD SWAP2 POP PUSH1 0x1F NOT PUSH1 0x3F RETURNDATASIZE ADD AND DUP3 ADD PUSH1 0x40 MSTORE RETURNDATASIZE DUP3 MSTORE RETURNDATASIZE PUSH0 PUSH1 0x20 DUP5 ADD RETURNDATACOPY PUSH2 0xAFB JUMP JUMPDEST PUSH1 0x60 SWAP2 POP JUMPDEST POP DUP1 MLOAD PUSH0 SUB PUSH2 0xB28 JUMPI PUSH1 0x40 MLOAD PUSH4 0x32505749 PUSH1 0xE1 SHL DUP2 MSTORE PUSH1 0x1 PUSH1 0x1 PUSH1 0xA0 SHL SUB DUP6 AND PUSH1 0x4 DUP3 ADD MSTORE PUSH1 0x24 ADD PUSH2 0x389 JUMP JUMPDEST DUP1 MLOAD DUP2 PUSH1 0x20 ADD REVERT JUMPDEST PUSH1 0x1 PUSH1 0x1 PUSH1 0xE0 SHL SUB NOT DUP2 AND PUSH4 0xA85BD01 PUSH1 0xE1 SHL EQ PUSH2 0xB6C JUMPI PUSH1 0x40 MLOAD PUSH4 0x32505749 PUSH1 0xE1 SHL DUP2 MSTORE PUSH1 0x1 PUSH1 0x1 PUSH1 0xA0 SHL SUB DUP6 AND PUSH1 0x4 DUP3 ADD MSTORE PUSH1 0x24 ADD PUSH2 0x389 JUMP JUMPDEST POP JUMPDEST POP POP POP POP POP JUMP JUMPDEST PUSH1 0x60 PUSH0 PUSH2 0xB81 DUP4 PUSH2 0xDBC JUMP JUMPDEST PUSH1 0x1 ADD SWAP1 POP PUSH0 DUP2 PUSH8 0xFFFFFFFFFFFFFFFF DUP2 GT ISZERO PUSH2 0xBA0 JUMPI PUSH2 0xBA0 PUSH2 0x10DA JUMP JUMPDEST PUSH1 0x40 MLOAD SWAP1 DUP1 DUP3 MSTORE DUP1 PUSH1 0x1F ADD PUSH1 0x1F NOT AND PUSH1 0x20 ADD DUP3 ADD PUSH1 0x40 MSTORE DUP1 ISZERO PUSH2 0xBCA JUMPI PUSH1 0x20 DUP3 ADD DUP2 DUP1 CALLDATASIZE DUP4 CALLDATACOPY ADD SWAP1 POP JUMPDEST POP SWAP1 POP DUP2 DUP2 ADD PUSH1 0x20 ADD JUMPDEST PUSH0 NOT ADD PUSH32 0x3031323334353637383961626364656600000000000000000000000000000000 PUSH1 0xA DUP7 MOD BYTE DUP2 MSTORE8 PUSH1 0xA DUP6 DIV SWAP5 POP DUP5 PUSH2 0xBD4 JUMPI POP SWAP4 SWAP3 POP POP POP JUMP JUMPDEST PUSH2 0xC1C DUP4 DUP4 PUSH2 0xE9D JUMP JUMPDEST PUSH2 0x75B CALLER PUSH0 DUP6 DUP6 DUP6 PUSH2 0xA4D JUMP JUMPDEST DUP1 DUP1 PUSH2 0xC3D JUMPI POP PUSH1 0x1 PUSH1 0x1 PUSH1 0xA0 SHL SUB DUP3 AND ISZERO ISZERO JUMPDEST ISZERO PUSH2 0xD1C JUMPI PUSH0 PUSH2 0xC4C DUP5 PUSH2 0x86B JUMP JUMPDEST SWAP1 POP PUSH1 0x1 PUSH1 0x1 PUSH1 0xA0 SHL SUB DUP4 AND ISZERO DUP1 ISZERO SWAP1 PUSH2 0xC78 JUMPI POP DUP3 PUSH1 0x1 PUSH1 0x1 PUSH1 0xA0 SHL SUB AND DUP2 PUSH1 0x1 PUSH1 0x1 PUSH1 0xA0 SHL SUB AND EQ ISZERO JUMPDEST DUP1 ISZERO PUSH2 0xCA9 JUMPI POP PUSH1 0x1 PUSH1 0x1 PUSH1 0xA0 SHL SUB DUP1 DUP3 AND PUSH0 SWAP1 DUP2 MSTORE PUSH1 0x5 PUSH1 0x20 SWAP1 DUP2 MSTORE PUSH1 0x40 DUP1 DUP4 KECCAK256 SWAP4 DUP8 AND DUP4 MSTORE SWAP3 SWAP1 MSTORE KECCAK256 SLOAD PUSH1 0xFF AND ISZERO JUMPDEST ISZERO PUSH2 0xCD2 JUMPI PUSH1 0x40 MLOAD PUSH4 0xA9FBF51F PUSH1 0xE0 SHL DUP2 MSTORE PUSH1 0x1 PUSH1 0x1 PUSH1 0xA0 SHL SUB DUP5 AND PUSH1 0x4 DUP3 ADD MSTORE PUSH1 0x24 ADD PUSH2 0x389 JUMP JUMPDEST DUP2 ISZERO PUSH2 0xD1A JUMPI DUP4 DUP6 PUSH1 0x1 PUSH1 0x1 PUSH1 0xA0 SHL SUB AND DUP3 PUSH1 0x1 PUSH1 0x1 PUSH1 0xA0 SHL SUB AND PUSH32 0x8C5BE1E5EBEC7D5BD14F71427D1E84F3DD0314C0F7B2291E5B200AC8C7C3B925 PUSH1 0x40 MLOAD PUSH1 0x40 MLOAD DUP1 SWAP2 SUB SWAP1 LOG4 JUMPDEST POP JUMPDEST POP POP PUSH0 SWAP1 DUP2 MSTORE PUSH1 0x4 PUSH1 0x20 MSTORE PUSH1 0x40 SWAP1 KECCAK256 DUP1 SLOAD PUSH20 0xFFFFFFFFFFFFFFFFFFFFFFFFFFFFFFFFFFFFFFFF NOT AND PUSH1 0x1 PUSH1 0x1 PUSH1 0xA0 SHL SUB SWAP3 SWAP1 SWAP3 AND SWAP2 SWAP1 SWAP2 OR SWAP1 SSTORE JUMP JUMPDEST PUSH2 0xD63 DUP4 DUP4 DUP4 PUSH2 0xEFE JUMP JUMPDEST PUSH2 0x75B JUMPI PUSH1 0x1 PUSH1 0x1 PUSH1 0xA0 SHL SUB DUP4 AND PUSH2 0xD91 JUMPI PUSH1 0x40 MLOAD PUSH4 0x7E273289 PUSH1 0xE0 SHL DUP2 MSTORE PUSH1 0x4 DUP2 ADD DUP3 SWAP1 MSTORE PUSH1 0x24 ADD PUSH2 0x389 JUMP JUMPDEST PUSH1 0x40 MLOAD PUSH4 0x177E802F PUSH1 0xE0 SHL DUP2 MSTORE PUSH1 0x1 PUSH1 0x1 PUSH1 0xA0 SHL SUB DUP4 AND PUSH1 0x4 DUP3 ADD MSTORE PUSH1 0x24 DUP2 ADD DUP3 SWAP1 MSTORE PUSH1 0x44 ADD PUSH2 0x389 JUMP JUMPDEST PUSH0 DUP1 PUSH27 0x184F03E93FF9F4DAA797ED6E38ED64BF6A1F010000000000000000 DUP4 LT PUSH2 0xE04 JUMPI PUSH27 0x184F03E93FF9F4DAA797ED6E38ED64BF6A1F010000000000000000 DUP4 DIV SWAP3 POP PUSH1 0x40 ADD JUMPDEST PUSH14 0x4EE2D6D415B85ACEF8100000000 DUP4 LT PUSH2 0xE30 JUMPI PUSH14 0x4EE2D6D415B85ACEF8100000000 DUP4 DIV SWAP3 POP PUSH1 0x20 ADD JUMPDEST PUSH7 0x2386F26FC10000 DUP4 LT PUSH2 0xE4E JUMPI PUSH7 0x2386F26FC10000 DUP4 DIV SWAP3 POP PUSH1 0x10 ADD JUMPDEST PUSH4 0x5F5E100 DUP4 LT PUSH2 0xE66 JUMPI PUSH4 0x5F5E100 DUP4 DIV SWAP3 POP PUSH1 0x8 ADD JUMPDEST PUSH2 0x2710 DUP4 LT PUSH2 0xE7A JUMPI PUSH2 0x2710 DUP4 DIV SWAP3 POP PUSH1 0x4 ADD JUMPDEST PUSH1 0x64 DUP4 LT PUSH2 0xE8C JUMPI PUSH1 0x64 DUP4 DIV SWAP3 POP PUSH1 0x2 ADD JUMPDEST PUSH1 0xA DUP4 LT PUSH2 0x5E2 JUMPI PUSH1 0x1 ADD SWAP3 SWAP2 POP POP JUMP JUMPDEST PUSH1 0x1 PUSH1 0x1 PUSH1 0xA0 SHL SUB DUP3 AND PUSH2 0xEC6 JUMPI PUSH1 0x40 MLOAD PUSH4 0x32505749 PUSH1 0xE1 SHL DUP2 MSTORE PUSH0 PUSH1 0x4 DUP3 ADD MSTORE PUSH1 0x24 ADD PUSH2 0x389 JUMP JUMPDEST PUSH0 PUSH2 0xED2 DUP4 DUP4 PUSH0 PUSH2 0x8B0 JUMP JUMPDEST SWAP1 POP PUSH1 0x1 PUSH1 0x1 PUSH1 0xA0 SHL SUB DUP2 AND ISZERO PUSH2 0x75B JUMPI PUSH1 0x40 MLOAD PUSH4 0x39E35637 PUSH1 0xE1 SHL DUP2 MSTORE PUSH0 PUSH1 0x4 DUP3 ADD MSTORE PUSH1 0x24 ADD PUSH2 0x389 JUMP JUMPDEST PUSH0 PUSH1 0x1 PUSH1 0x1 PUSH1 0xA0 SHL SUB DUP4 AND ISZERO DUP1 ISZERO SWAP1 PUSH2 0xF79 JUMPI POP DUP3 PUSH1 0x1 PUSH1 0x1 PUSH1 0xA0 SHL SUB AND DUP5 PUSH1 0x1 PUSH1 0x1 PUSH1 0xA0 SHL SUB AND EQ DUP1 PUSH2 0xF56 JUMPI POP PUSH1 0x1 PUSH1 0x1 PUSH1 0xA0 SHL SUB DUP1 DUP6 AND PUSH0 SWAP1 DUP2 MSTORE PUSH1 0x5 PUSH1 0x20 SWAP1 DUP2 MSTORE PUSH1 0x40 DUP1 DUP4 KECCAK256 SWAP4 DUP8 AND DUP4 MSTORE SWAP3 SWAP1 MSTORE KECCAK256 SLOAD PUSH1 0xFF AND JUMPDEST DUP1 PUSH2 0xF79 JUMPI POP PUSH0 DUP3 DUP2 MSTORE PUSH1 0x4 PUSH1 0x20 MSTORE PUSH1 0x40 SWAP1 KECCAK256 SLOAD PUSH1 0x1 PUSH1 0x1 PUSH1 0xA0 SHL SUB DUP5 DUP2 AND SWAP2 AND EQ JUMPDEST SWAP5 SWAP4 POP POP POP POP JUMP JUMPDEST DUP1 CALLDATALOAD PUSH1 0x1 PUSH1 0x1 PUSH1 0xA0 SHL SUB DUP2 AND DUP2 EQ PUSH2 0xF97 JUMPI PUSH0 DUP1 REVERT JUMPDEST SWAP2 SWAP1 POP JUMP JUMPDEST PUSH0 PUSH1 0x20 DUP3 DUP5 SUB SLT ISZERO PUSH2 0xFAC JUMPI PUSH0 DUP1 REVERT JUMPDEST PUSH2 0x84B DUP3 PUSH2 0xF81 JUMP JUMPDEST PUSH1 0x1 PUSH1 0x1 PUSH1 0xE0 SHL SUB NOT DUP2 AND DUP2 EQ PUSH2 0xFCA JUMPI PUSH0 DUP1 REVERT JUMPDEST POP JUMP JUMPDEST PUSH0 PUSH1 0x20 DUP3 DUP5 SUB SLT ISZERO PUSH2 0xFDD JUMPI PUSH0 DUP1 REVERT JUMPDEST DUP2 CALLDATALOAD PUSH2 0x84B DUP2 PUSH2 0xFB5 JUMP JUMPDEST PUSH0 DUP2 MLOAD DUP1 DUP5 MSTORE DUP1 PUSH1 0x20 DUP5 ADD PUSH1 0x20 DUP7 ADD MCOPY PUSH0 PUSH1 0x20 DUP3 DUP7 ADD ADD MSTORE PUSH1 0x20 PUSH1 0x1F NOT PUSH1 0x1F DUP4 ADD AND DUP6 ADD ADD SWAP2 POP POP SWAP3 SWAP2 POP POP JUMP JUMPDEST PUSH1 0x20 DUP2 MSTORE PUSH0 PUSH2 0x84B PUSH1 0x20 DUP4 ADD DUP5 PUSH2 0xFE8 JUMP JUMPDEST PUSH0 PUSH1 0x20 DUP3 DUP5 SUB SLT ISZERO PUSH2 0x1038 JUMPI PUSH0 DUP1 REVERT JUMPDEST POP CALLDATALOAD SWAP2 SWAP1 POP JUMP JUMPDEST PUSH0 DUP1 PUSH1 0x40 DUP4 DUP6 SUB SLT ISZERO PUSH2 0x1050 JUMPI PUSH0 DUP1 REVERT JUMPDEST PUSH2 0x1059 DUP4 PUSH2 0xF81 JUMP JUMPDEST SWAP5 PUSH1 0x20 SWAP4 SWAP1 SWAP4 ADD CALLDATALOAD SWAP4 POP POP POP JUMP JUMPDEST PUSH0 DUP1 PUSH0 PUSH1 0x60 DUP5 DUP7 SUB SLT ISZERO PUSH2 0x1079 JUMPI PUSH0 DUP1 REVERT JUMPDEST PUSH2 0x1082 DUP5 PUSH2 0xF81 JUMP JUMPDEST SWAP3 POP PUSH2 0x1090 PUSH1 0x20 DUP6 ADD PUSH2 0xF81 JUMP JUMPDEST SWAP3 SWAP6 SWAP3 SWAP5 POP POP POP PUSH1 0x40 SWAP2 SWAP1 SWAP2 ADD CALLDATALOAD SWAP1 JUMP JUMPDEST PUSH0 DUP1 PUSH1 0x40 DUP4 DUP6 SUB SLT ISZERO PUSH2 0x10B2 JUMPI PUSH0 DUP1 REVERT JUMPDEST PUSH2 0x10BB DUP4 PUSH2 0xF81 JUMP JUMPDEST SWAP2 POP PUSH1 0x20 DUP4 ADD CALLDATALOAD DUP1 ISZERO ISZERO DUP2 EQ PUSH2 0x10CF JUMPI PUSH0 DUP1 REVERT JUMPDEST DUP1 SWAP2 POP POP SWAP3 POP SWAP3 SWAP1 POP JUMP JUMPDEST PUSH4 0x4E487B71 PUSH1 0xE0 SHL PUSH0 MSTORE PUSH1 0x41 PUSH1 0x4 MSTORE PUSH1 0x24 PUSH0 REVERT JUMPDEST PUSH0 DUP1 PUSH0 DUP1 PUSH1 0x80 DUP6 DUP8 SUB SLT ISZERO PUSH2 0x1101 JUMPI PUSH0 DUP1 REVERT JUMPDEST PUSH2 0x110A DUP6 PUSH2 0xF81 JUMP JUMPDEST SWAP4 POP PUSH2 0x1118 PUSH1 0x20 DUP7 ADD PUSH2 0xF81 JUMP JUMPDEST SWAP3 POP PUSH1 0x40 DUP6 ADD CALLDATALOAD SWAP2 POP PUSH1 0x60 DUP6 ADD CALLDATALOAD PUSH8 0xFFFFFFFFFFFFFFFF DUP2 GT ISZERO PUSH2 0x113A JUMPI PUSH0 DUP1 REVERT JUMPDEST DUP6 ADD PUSH1 0x1F DUP2 ADD DUP8 SGT PUSH2 0x114A JUMPI PUSH0 DUP1 REVERT JUMPDEST DUP1 CALLDATALOAD PUSH8 0xFFFFFFFFFFFFFFFF DUP2 GT ISZERO PUSH2 0x1164 JUMPI PUSH2 0x1164 PUSH2 0x10DA JUMP JUMPDEST PUSH1 0x40 MLOAD PUSH1 0x1F DUP3 ADD PUSH1 0x1F NOT SWAP1 DUP2 AND PUSH1 0x3F ADD AND DUP2 ADD PUSH8 0xFFFFFFFFFFFFFFFF DUP2 GT DUP3 DUP3 LT OR ISZERO PUSH2 0x1193 JUMPI PUSH2 0x1193 PUSH2 0x10DA JUMP JUMPDEST PUSH1 0x40 MSTORE DUP2 DUP2 MSTORE DUP3 DUP3 ADD PUSH1 0x20 ADD DUP10 LT ISZERO PUSH2 0x11AA JUMPI PUSH0 DUP1 REVERT JUMPDEST DUP2 PUSH1 0x20 DUP5 ADD PUSH1 0x20 DUP4 ADD CALLDATACOPY PUSH0 PUSH1 0x20 DUP4 DUP4 ADD ADD MSTORE DUP1 SWAP4 POP POP POP POP SWAP3 SWAP6 SWAP2 SWAP5 POP SWAP3 POP JUMP JUMPDEST PUSH0 DUP1 PUSH1 0x40 DUP4 DUP6 SUB SLT ISZERO PUSH2 0x11DC JUMPI PUSH0 DUP1 REVERT JUMPDEST PUSH2 0x11E5 DUP4 PUSH2 0xF81 JUMP JUMPDEST SWAP2 POP PUSH2 0x11F3 PUSH1 0x20 DUP5 ADD PUSH2 0xF81 JUMP JUMPDEST SWAP1 POP SWAP3 POP SWAP3 SWAP1 POP JUMP JUMPDEST PUSH4 0x4E487B71 PUSH1 0xE0 SHL PUSH0 MSTORE PUSH1 0x11 PUSH1 0x4 MSTORE PUSH1 0x24 PUSH0 REVERT JUMPDEST PUSH4 0xFFFFFFFF DUP2 DUP2 AND DUP4 DUP3 AND ADD SWAP1 DUP2 GT ISZERO PUSH2 0x5E2 JUMPI PUSH2 0x5E2 PUSH2 0x11FC JUMP JUMPDEST PUSH4 0xFFFFFFFF DUP3 DUP2 AND DUP3 DUP3 AND SUB SWAP1 DUP2 GT ISZERO PUSH2 0x5E2 JUMPI PUSH2 0x5E2 PUSH2 0x11FC JUMP JUMPDEST PUSH1 0x1 DUP2 DUP2 SHR SWAP1 DUP3 AND DUP1 PUSH2 0x125C JUMPI PUSH1 0x7F DUP3 AND SWAP2 POP JUMPDEST PUSH1 0x20 DUP3 LT DUP2 SUB PUSH2 0x127A JUMPI PUSH4 0x4E487B71 PUSH1 0xE0 SHL PUSH0 MSTORE PUSH1 0x22 PUSH1 0x4 MSTORE PUSH1 0x24 PUSH0 REVERT JUMPDEST POP SWAP2 SWAP1 POP JUMP JUMPDEST PUSH0 DUP2 MLOAD DUP1 PUSH1 0x20 DUP5 ADD DUP6 MCOPY PUSH0 SWAP4 ADD SWAP3 DUP4 MSTORE POP SWAP1 SWAP2 SWAP1 POP JUMP JUMPDEST PUSH0 PUSH2 0xF79 PUSH2 0x12A5 DUP4 DUP7 PUSH2 0x1280 JUMP JUMPDEST DUP5 PUSH2 0x1280 JUMP JUMPDEST PUSH1 0x1 PUSH1 0x1 PUSH1 0xA0 SHL SUB DUP6 AND DUP2 MSTORE PUSH1 0x1 PUSH1 0x1 PUSH1 0xA0 SHL SUB DUP5 AND PUSH1 0x20 DUP3 ADD MSTORE DUP3 PUSH1 0x40 DUP3 ADD MSTORE PUSH1 0x80 PUSH1 0x60 DUP3 ADD MSTORE PUSH0 PUSH2 0x12E1 PUSH1 0x80 DUP4 ADD DUP5 PUSH2 0xFE8 JUMP JUMPDEST SWAP7 SWAP6 POP POP POP POP POP POP JUMP JUMPDEST PUSH0 PUSH1 0x20 DUP3 DUP5 SUB SLT ISZERO PUSH2 0x12FB JUMPI PUSH0 DUP1 REVERT JUMPDEST DUP2 MLOAD PUSH2 0x84B DUP2 PUSH2 0xFB5 JUMP INVALID LOG2 PUSH5 0x6970667358 0x22 SLT KECCAK256 SWAP12 0xEE 0xF6 SWAP6 0xAE CREATE2 PUSH19 0xB76782AC532C9232D4231240464FEA1227509 DELEGATECALL KECCAK256 JUMPDEST 0x24 0xB7 PUSH20 0x64736F6C634300081A0033000000000000000000 "
		},
		"gasEstimates": {
			"creation": {
				"codeDepositCost": "984800",
				"executionCost": "infinite",
				"totalCost": "infinite"
			},
			"external": {
				"approve(address,uint256)": "31413",
				"available_supply()": "2418",
				"balanceOf(address)": "2652",
				"getApproved(uint256)": "infinite",
				"isApprovedForAll(address,address)": "infinite",
				"max_supply()": "2412",
				"mintToken()": "infinite",
				"mintToken(address)": "infinite",
				"name()": "infinite",
				"ownerOf(uint256)": "infinite",
				"safeTransferFrom(address,address,uint256)": "infinite",
				"safeTransferFrom(address,address,uint256,bytes)": "infinite",
				"setApprovalForAll(address,bool)": "26678",
				"song_id()": "2433",
				"supportsInterface(bytes4)": "553",
				"symbol()": "infinite",
				"tokenURI(uint256)": "infinite",
				"total_supply()": "2423",
				"transferFrom(address,address,uint256)": "infinite"
			}
		},
		"methodIdentifiers": {
			"approve(address,uint256)": "095ea7b3",
			"available_supply()": "24f92a25",
			"balanceOf(address)": "70a08231",
			"getApproved(uint256)": "081812fc",
			"isApprovedForAll(address,address)": "e985e9c5",
			"max_supply()": "8a333b50",
			"mintToken()": "2004ffd9",
			"mintToken(address)": "01173a74",
			"name()": "06fdde03",
			"ownerOf(uint256)": "6352211e",
			"safeTransferFrom(address,address,uint256)": "42842e0e",
			"safeTransferFrom(address,address,uint256,bytes)": "b88d4fde",
			"setApprovalForAll(address,bool)": "a22cb465",
			"song_id()": "fedb3dca",
			"supportsInterface(bytes4)": "01ffc9a7",
			"symbol()": "95d89b41",
			"tokenURI(uint256)": "c87b56dd",
			"total_supply()": "3940e9ee",
			"transferFrom(address,address,uint256)": "23b872dd"
		}
	},
	"abi": [
		{
			"inputs": [
				{
					"internalType": "string",
					"name": "song_name",
					"type": "string"
				},
				{
					"internalType": "uint32",
					"name": "_max_supply",
					"type": "uint32"
				},
				{
					"internalType": "uint32",
					"name": "_song_id",
					"type": "uint32"
				}
			],
			"stateMutability": "nonpayable",
			"type": "constructor"
		},
		{
			"inputs": [
				{
					"internalType": "address",
					"name": "sender",
					"type": "address"
				},
				{
					"internalType": "uint256",
					"name": "tokenId",
					"type": "uint256"
				},
				{
					"internalType": "address",
					"name": "owner",
					"type": "address"
				}
			],
			"name": "ERC721IncorrectOwner",
			"type": "error"
		},
		{
			"inputs": [
				{
					"internalType": "address",
					"name": "operator",
					"type": "address"
				},
				{
					"internalType": "uint256",
					"name": "tokenId",
					"type": "uint256"
				}
			],
			"name": "ERC721InsufficientApproval",
			"type": "error"
		},
		{
			"inputs": [
				{
					"internalType": "address",
					"name": "approver",
					"type": "address"
				}
			],
			"name": "ERC721InvalidApprover",
			"type": "error"
		},
		{
			"inputs": [
				{
					"internalType": "address",
					"name": "operator",
					"type": "address"
				}
			],
			"name": "ERC721InvalidOperator",
			"type": "error"
		},
		{
			"inputs": [
				{
					"internalType": "address",
					"name": "owner",
					"type": "address"
				}
			],
			"name": "ERC721InvalidOwner",
			"type": "error"
		},
		{
			"inputs": [
				{
					"internalType": "address",
					"name": "receiver",
					"type": "address"
				}
			],
			"name": "ERC721InvalidReceiver",
			"type": "error"
		},
		{
			"inputs": [
				{
					"internalType": "address",
					"name": "sender",
					"type": "address"
				}
			],
			"name": "ERC721InvalidSender",
			"type": "error"
		},
		{
			"inputs": [
				{
					"internalType": "uint256",
					"name": "tokenId",
					"type": "uint256"
				}
			],
			"name": "ERC721NonexistentToken",
			"type": "error"
		},
		{
			"anonymous": false,
			"inputs": [
				{
					"indexed": true,
					"internalType": "address",
					"name": "owner",
					"type": "address"
				},
				{
					"indexed": true,
					"internalType": "address",
					"name": "approved",
					"type": "address"
				},
				{
					"indexed": true,
					"internalType": "uint256",
					"name": "tokenId",
					"type": "uint256"
				}
			],
			"name": "Approval",
			"type": "event"
		},
		{
			"anonymous": false,
			"inputs": [
				{
					"indexed": true,
					"internalType": "address",
					"name": "owner",
					"type": "address"
				},
				{
					"indexed": true,
					"internalType": "address",
					"name": "operator",
					"type": "address"
				},
				{
					"indexed": false,
					"internalType": "bool",
					"name": "approved",
					"type": "bool"
				}
			],
			"name": "ApprovalForAll",
			"type": "event"
		},
		{
			"anonymous": false,
			"inputs": [
				{
					"indexed": true,
					"internalType": "address",
					"name": "from",
					"type": "address"
				},
				{
					"indexed": true,
					"internalType": "address",
					"name": "to",
					"type": "address"
				},
				{
					"indexed": true,
					"internalType": "uint256",
					"name": "tokenId",
					"type": "uint256"
				}
			],
			"name": "Transfer",
			"type": "event"
		},
		{
			"anonymous": false,
			"inputs": [
				{
					"indexed": false,
					"internalType": "uint256",
					"name": "available_supply",
					"type": "uint256"
				}
			],
			"name": "tokenMinted",
			"type": "event"
		},
		{
			"inputs": [
				{
					"internalType": "address",
					"name": "to",
					"type": "address"
				},
				{
					"internalType": "uint256",
					"name": "tokenId",
					"type": "uint256"
				}
			],
			"name": "approve",
			"outputs": [],
			"stateMutability": "nonpayable",
			"type": "function"
		},
		{
			"inputs": [],
			"name": "available_supply",
			"outputs": [
				{
					"internalType": "uint32",
					"name": "",
					"type": "uint32"
				}
			],
			"stateMutability": "view",
			"type": "function"
		},
		{
			"inputs": [
				{
					"internalType": "address",
					"name": "owner",
					"type": "address"
				}
			],
			"name": "balanceOf",
			"outputs": [
				{
					"internalType": "uint256",
					"name": "",
					"type": "uint256"
				}
			],
			"stateMutability": "view",
			"type": "function"
		},
		{
			"inputs": [
				{
					"internalType": "uint256",
					"name": "tokenId",
					"type": "uint256"
				}
			],
			"name": "getApproved",
			"outputs": [
				{
					"internalType": "address",
					"name": "",
					"type": "address"
				}
			],
			"stateMutability": "view",
			"type": "function"
		},
		{
			"inputs": [
				{
					"internalType": "address",
					"name": "owner",
					"type": "address"
				},
				{
					"internalType": "address",
					"name": "operator",
					"type": "address"
				}
			],
			"name": "isApprovedForAll",
			"outputs": [
				{
					"internalType": "bool",
					"name": "",
					"type": "bool"
				}
			],
			"stateMutability": "view",
			"type": "function"
		},
		{
			"inputs": [],
			"name": "max_supply",
			"outputs": [
				{
					"internalType": "uint32",
					"name": "",
					"type": "uint32"
				}
			],
			"stateMutability": "view",
			"type": "function"
		},
		{
			"inputs": [
				{
					"internalType": "address",
					"name": "_to",
					"type": "address"
				}
			],
			"name": "mintToken",
			"outputs": [],
			"stateMutability": "nonpayable",
			"type": "function"
		},
		{
			"inputs": [],
			"name": "mintToken",
			"outputs": [],
			"stateMutability": "nonpayable",
			"type": "function"
		},
		{
			"inputs": [],
			"name": "name",
			"outputs": [
				{
					"internalType": "string",
					"name": "",
					"type": "string"
				}
			],
			"stateMutability": "view",
			"type": "function"
		},
		{
			"inputs": [
				{
					"internalType": "uint256",
					"name": "tokenId",
					"type": "uint256"
				}
			],
			"name": "ownerOf",
			"outputs": [
				{
					"internalType": "address",
					"name": "",
					"type": "address"
				}
			],
			"stateMutability": "view",
			"type": "function"
		},
		{
			"inputs": [
				{
					"internalType": "address",
					"name": "from",
					"type": "address"
				},
				{
					"internalType": "address",
					"name": "to",
					"type": "address"
				},
				{
					"internalType": "uint256",
					"name": "tokenId",
					"type": "uint256"
				}
			],
			"name": "safeTransferFrom",
			"outputs": [],
			"stateMutability": "nonpayable",
			"type": "function"
		},
		{
			"inputs": [
				{
					"internalType": "address",
					"name": "from",
					"type": "address"
				},
				{
					"internalType": "address",
					"name": "to",
					"type": "address"
				},
				{
					"internalType": "uint256",
					"name": "tokenId",
					"type": "uint256"
				},
				{
					"internalType": "bytes",
					"name": "data",
					"type": "bytes"
				}
			],
			"name": "safeTransferFrom",
			"outputs": [],
			"stateMutability": "nonpayable",
			"type": "function"
		},
		{
			"inputs": [
				{
					"internalType": "address",
					"name": "operator",
					"type": "address"
				},
				{
					"internalType": "bool",
					"name": "approved",
					"type": "bool"
				}
			],
			"name": "setApprovalForAll",
			"outputs": [],
			"stateMutability": "nonpayable",
			"type": "function"
		},
		{
			"inputs": [],
			"name": "song_id",
			"outputs": [
				{
					"internalType": "uint32",
					"name": "",
					"type": "uint32"
				}
			],
			"stateMutability": "view",
			"type": "function"
		},
		{
			"inputs": [
				{
					"internalType": "bytes4",
					"name": "interfaceId",
					"type": "bytes4"
				}
			],
			"name": "supportsInterface",
			"outputs": [
				{
					"internalType": "bool",
					"name": "",
					"type": "bool"
				}
			],
			"stateMutability": "view",
			"type": "function"
		},
		{
			"inputs": [],
			"name": "symbol",
			"outputs": [
				{
					"internalType": "string",
					"name": "",
					"type": "string"
				}
			],
			"stateMutability": "view",
			"type": "function"
		},
		{
			"inputs": [
				{
					"internalType": "uint256",
					"name": "tokenId",
					"type": "uint256"
				}
			],
			"name": "tokenURI",
			"outputs": [
				{
					"internalType": "string",
					"name": "",
					"type": "string"
				}
			],
			"stateMutability": "view",
			"type": "function"
		},
		{
			"inputs": [],
			"name": "total_supply",
			"outputs": [
				{
					"internalType": "uint32",
					"name": "",
					"type": "uint32"
				}
			],
			"stateMutability": "view",
			"type": "function"
		},
		{
			"inputs": [
				{
					"internalType": "address",
					"name": "from",
					"type": "address"
				},
				{
					"internalType": "address",
					"name": "to",
					"type": "address"
				},
				{
					"internalType": "uint256",
					"name": "tokenId",
					"type": "uint256"
				}
			],
			"name": "transferFrom",
			"outputs": [],
			"stateMutability": "nonpayable",
			"type": "function"
		}
	]
}